:020000040800F2
:10000000500B0020A101000843270008CF2300085F
:1000100041270008E3120008AF2B00080000000091
:10002000000000000000000000000000252A000879
:10003000E51200080000000045270008292A0008F2
:10004000BB010008BB010008BB010008BB010008A0
:10005000BB010008BB010008E9120008BB01000851
:10006000BB010008BB010008BB010008BB01000880
:10007000BB010008BB010008BB010008BB01000870
:10008000BB010008BB010008BB010008BB01000860
:10009000BB010008BB010008BB010008BB01000850
:1000A000BB010008BB010008BB010008BB01000840
:1000B000CD2A0008BB010008BB010008BB010008F5
:1000C000BB010008BB010008BB010008BB01000820
:1000D000BB010008BB010008BB010008BB01000810
:1000E000BB010008BB010008BB01000800F002F8DA
:1000F00000F047F80AA090E8000C82448344AAF17B
:100100000107DA4501D100F03CF8AFF2090EBAE878
:100110000F0013F0010F18BFFB1A43F0010318473B
:100120002843000048430000103A24BF78C878C133
:10013000FAD8520724BF30C830C144BF04680C60ED
:10014000704700000023002400250026103A28BF35
:1001500078C1FBD8520728BF30C148BF0B60704739
:10016000662903F0FA81002070471FB500F07CFB80
:1001700004000020002102F0E5FDE0601FBD10B585
:1001800010BD00F071FC1146FFF7EFFF02F03CFDDF
:1001900000F08FFC03B4FFF7F2FF03BC00F0D2FCC9
:1001A0000948804709480047FEE7FEE7FEE7FEE70B
:1001B000FEE7FEE7FEE7FEE7FEE7FEE70448054947
:1001C000054A064B70470000C92A0008ED000008E8
:1001D00050050020500B0020500700205007002041
:1001E0000FB41CB5074B06AA7B44694600900598DE
:1001F00000F0FFFA0020694600F00EFB1CBC5DF821
:1002000014FB00002D06000070B5044685690068E7
:10021000C10601D5302600E02026C00707D070BDFA
:10022000D4E9012130469047206A401C20626D1EAF
:10023000F6D570BD70B5044685690078C00707D152
:1002400070BDD4E9012120209047206A401C206223
:100250006D1EF6D570BD2DE9F0474FF0000A8946B6
:100260000446C0F820A02046E1688847002876D0E0
:10027000252806D0D4E901219047206A401C20623D
:10028000F1E7E168204600258847C4F81CA006462F
:100290000027C4F818A02A2E09D0304602F0ACFC82
:1002A00038B304EB8708303EC8F8186019E059F8F5
:1002B000041B204604EB87029161E1688847012F07
:1002C000064618D1E069002820DA25F020051DE057
:1002D000D8F8180000EB800006EB40003038C8F872
:1002E00018002046E1688847064602F085FC002891
:1002F000EED1012F0AD02E2E08D12046E168884782
:100300007F1C0646022F45F02005C4DBA0690028AB
:1003100003DA404245F00105A061E80701D025F06D
:100320001005B6B1A6F14100192802D8203645F4CF
:1003300000654A463146204625604D46FFF710FFCE
:1003400058B1012806D0ED1D25F0070000F108097D
:1003500089E704E005F1040985E730468AE7206A69
:10036000BDE8F08702F0FF0343EA032242EA0242BB
:1003700000F059BA4FF0000200B513469446964675
:10038000203922BFA0E80C50A0E80C50B1F12001A8
:10039000BFF4F7AF090728BFA0E80C5048BF0CC056
:1003A0005DF804EB890028BF40F8042B08BF7047B4
:1003B00048BF20F8022B11F0804F18BF00F8012B26
:1003C000704770477047704770472DE9FF4F0C46E4
:1003D0001E464FF0FF378BB0D2E90001DDF8608098
:1003E0000A908A46C1F30A5505B93D4600210846E0
:1003F0004FF00000BAF1000F00F4400005DA00EB06
:1004000080004FF4400101EA50004FEA9059B9F1E1
:10041000010F00DDB9460A9850EA4A000ED044F6B2
:100420001050A5F2FF3545432F14B8F1000F1ED030
:100430007542291E1EDDC9F100021CE0B8F1010F52
:100440004FF0000001D0302103E0F24305E02154D9
:10045000401CB042FBDB30460022002121540B99A6
:10046000C1F80880C1E900200FB0BDE8F08FBD1BC6
:100470006D1CDEE74A4600DA694206A800F07EFA03
:1004800006AB93E8070003AB83E8070050460A99E0
:1004900000F05FFB8DE80700A0F500501F380090CA
:1004A0000398002D0ADD42F21F014A46084400234A
:1004B00003A90390684600F0C8FD09E0A0F50050CC
:1004C0004A461F38002303A90390684600F0D2FD76
:1004D0008DE807000004000C03D04FF0FF30410806
:1004E00000E01046B8F1000F03D00022009215463C
:1004F0001EE0751E05D400F0BBF9303262556D1E4A
:10050000F9D5B3460122084302D000227F1C04E043
:100510002078302801D100227F1E002A099784D03C
:100520001DE0112D07DA00F0A3F9303262556D1C81
:1005300050EA0102F5D1084302D00098C8B10EE09C
:100540000021681E05E0235C625C63542254401E57
:10055000491C8142F7DBAB46A81B401E09900020D6
:1005600004F80B000B98099AC0F80880C0E9002B2A
:100570007AE711264FF0000857E72DE9F04F88463B
:100580000446D21D22F0070191B0D1E90001CDE966
:100590000A0102F00DFB02460B98C00F01D02D207E
:1005A00007E02068810701D52B2002E0202101EA25
:1005B000C000032A099001D0072A05DB0346414603
:1005C000204600F09BF90BE12078800601D5E06918
:1005D00000E00620B8F1650F814606D0B8F1660F3D
:1005E00018D0B8F1670F70D131E00020B9F1110FC8
:1005F000009001DB112301E009F101030AAA01A91E
:100600000CA8FFF7E2FEDDE90C70002609F10105F8
:10061000834647E001204B4600904FF000470AAA6E
:1006200001A90CA8FFF7D1FEDDE90DB00C995D46DC
:10063000002610B909F101000D18B9EB050003D42B
:10064000C0F1FF3609F10105A5EB09002BE0B9F176
:10065000010F01DA4FF001090020B9F1110F0090EC
:10066000484601DD112300E003460AAA01A90CA8AF
:10067000FFF7ABFEDDE90C704D460026834620787F
:1006800000070AD4AB4500DA5D4601A8012D04DD60
:10069000411911F8011C302907D04F4502DA17F132
:1006A000040F04DA012082460FE06D1EEEE7002FF2
:1006B00002DCED1B3E4403E0781CA84200DD7D1CFB
:1006C000B81B00F1010A4FF000472078000703D45F
:1006D000AA4501DB4FF0FF3A0021B7F1004F0DF1C1
:1006E00043088DF8431024D002202B23002F01DA79
:1006F0007F422D230A21021EA0F1010000DC5FB120
:1007000097FBF1FC97FBF1F201FB1C7C17460CF107
:10071000300C08F801CDEEE7A8F101000370218844
:10072000090501D5452100E06521A0F1010800F887
:10073000011C09980FA9A1EB0807FF1D00B10120BA
:10074000411901EBEA70A1693844081A401EA06102
:100750002078C00602D42046FFF756FD099828B13C
:10076000D4E901219047206A401C20622078C0060D
:1007700022D52046FFF748FD1EE0002E04DBB345DE
:1007800002DD01A8805D00E03020D4E9012190471E
:10079000206A401C2062761CAAF101005FEA000A70
:1007A0000AD100F061F8C0680168405CD4E9012119
:1007B0009047206A401C2062281EA5F10105DCDC60
:1007C00007E0D4E9012118F8010B9047206A401C8A
:1007D0002062381EA7F10107F3DC2046FFF72AFD4F
:1007E000032011B041E6000001694A1C026108784B
:1007F000704700B58FB0CDE9013100210591054961
:100800007944CDE9031011466846FFF724FD0FB087
:1008100000BD0000E5FFFFFF0A6802F8010B0A6057
:1008200070474FF000020429C0F0128010F0030C52
:100830003FF4A2ADCCF1040CBCF1020F18BF00F8DC
:10084000012BA8BF20F8022BA1EB0C01FFF794BDF0
:100850005FEAC17C24BF00F8012B00F8012B48BFE0
:1008600000F8012B70470000004870470C0500207D
:1008700030B5B0F10A024FEA900E71F100034EEA72
:10088000817EB0EB0E0061EB91014FEA101E4EEA43
:10089000017E10EB0E0041EB11114FEA102E4EEAD3
:1008A000016E10EB0E0041EB11214FEA104E4EEAA3
:1008B000014E10EB0E0041EB1141401841F10001D7
:1008C0004FEAD00040EA41704FEAD10110EB8005B9
:1008D0004FEA810444EA907444EB01046D1944EB3F
:1008E0000404521BA3414FF0000348BF0A3200D555
:1008F00030BD401C41F1000130BD00002DE9F04148
:100900001F46044603260168072A01F4006004DB41
:1009100008B116A505E016A503E008B115A500E08D
:1009200015A521F010002060A069C01EA0610FB1C4
:10093000401EA0612046FFF767FC4FB1D4E90121BA
:1009400038469047206A401C2062C01C206206E0A6
:10095000206AFAE7D4E9012115F8010B9047761EC9
:10096000F8D22046FFF766FCBDE8F0814E414E000C
:100970006E616E00494E4600696E66002DE9F047D3
:10098000814616468AB0354878440DC88DE80D007A
:1009900032487844801C03AC0DC884E80D0041F651
:1009A0009B300844372190FBF1F290FBF1F5A5F163
:1009B000800501FB12041B3C02D56442012000E0CB
:1009C0000020DFF898A080460027FA44AAF1BE0A6A
:1009D0000EE0E0070AD03246684607EB47010123E4
:1009E0000AEB810100F046FB8DE8070064107F1CD4
:1009F000002CEED1194F7F44AE3F19E0E80715D027
:100A000007EB04100DF1180A90E80E008AE80E00BA
:100A1000C068F04201D1981908903246012306A916
:100A200003A800F027FB03AB83E807006D10641CEC
:100A3000002DE3D14FF0010332466946B8F1000FB3
:100A400003A802D000F001FB01E000F013FBC9E9AC
:100A50000001C9F808200AB0BDE8F087A43A0000F8
:100A600000487047EC0400207546FFF7F9FFAE46DA
:100A700005006946534620F00700854618B020B5AA
:100A8000FFF79CFBBDE820404FF000064FF0000749
:100A90004FF000084FF0000B21F00701AC46ACE826
:100AA000C009ACE8C009ACE8C009ACE8C0098D4693
:100AB000704710B50446AFF300802046BDE81040F3
:100AC000FFF768BB4FF0013C50F8042B51F8043B92
:100AD0009A4221D1A2EB0C03934313EACC1317D112
:100AE00050F8042B51F8043B9A4215D1A2EB0C03A9
:100AF000934313EACC130BD150F8042B51F8043B69
:100B00009A4209D1A2EB0C03934313EACC13DBD036
:100B10004FF00000704700BFD01A01BAB1FA81F15E
:100B200001F0180122FA01F0CB40C1F12001DBB243
:100B3000C0B2C01A2CFA01F3D11A914311EAC311C1
:100B4000E6D1704701491820ABBEFEE7260002003F
:100B500070475FEA400C08BF91F0000F4FEA8C230A
:100B60004FEAC12243EA51514FEA1C5018BF00F529
:100B7000F0404FEA300018BF41F000415FEA6C5C82
:100B800000F02980BCF1FF3F08BF40F08040704773
:100B9000130C06BF12044FF0100C4FF0000C130E94
:100BA00004BF12020CF1080C130F04BF12010CF168
:100BB000040C930F04BF92000CF1020CD30F04BF7E
:100BC00052000CF1010C11464FF00002A0F11F0081
:100BD000A0EB0C00704711F0004F08BF704731F0D8
:100BE00000413FF4D5AF0B0C06BF09044FF0100CC9
:100BF0004FF0000C0B0E04BF09020CF1080C0B0F98
:100C000004BF09010CF1040C8B0F04BF89000CF127
:100C1000020CCB0F04BF49000CF1010CCCF12003F6
:100C2000A0EB0C0022FA03F302FA0CF241EA0301F2
:100C300000F10100704720F07F4C80EA030023F0B0
:100C40007F47ACEB070303F57C5300F0004003F152
:100C5000FF032DE980494FEA154B09B44FEA1443CD
:100C600025EA0B4E24EA03480FF2042606EB13276D
:100C700049083E785FEA320203FB0667C7F50007C2
:100C800007FB06F64FEA54374FEAD64606F102064E
:100C900007FB066CCCF1005C4FEA1C472CEA074CC2
:100CA00007FB06F40CFB06F504EB15464FEA961617
:100CB00034BF00204FF000404FEAD13706FB07FC5D
:100CC0004FEA1C4C0CFB0BF7D21B03FB0CF761EB40
:100CD00007010CFB0EF7B0EB074072EB17420CFB61
:100CE00008F734BFA2EB0742B2EB074261EB1741B2
:100CF0004FEA0C444FEA910706FB07FC4FEA1C4CF5
:100D00000CFB0BF7B0EBC74072EB573203FB0CF751
:100D100034BFA2EBC742B2EBC74261EB57310CFBC9
:100D20000EF7B0EBC70072EB57720CFB08F734BF3D
:100D3000A2EBC702B2EBC70261EB5771039F4FEA08
:100D4000816141EA921104EBCC044FEAD1374FEABA
:100D5000826206FB07FC42EA90124FEA80604FEA8B
:100D60001C4C0CFB0BF7D21B03FB0CF761EB0701D0
:100D70000CFB0EF7B0EB074072EB17420CFB08F7C9
:100D800034BFA2EB0742B2EB074261EB17414FEAD7
:100D90008C554FEA910704EB9C2406FB07FC4FEAB5
:100DA0001C4C0CFB0BF7B0EBC74072EB573203FB4C
:100DB0000CF734BFA2EBC742B2EBC74261EB57312D
:100DC0000CFB0EF7B0EBC70072EB57720CFB08F789
:100DD00034BFA2EBC702B2EBC70261EB577115EB50
:100DE0004C254FEA816141EA92114FEA82624FEA53
:100DF000D13742EA901206FB07FC44F100044FEAA7
:100E000080604FEA1C4C0CFB0BF7D21B03FB0CF76A
:100E100061EB07010CFB0EF7B0EB074072EB1742DA
:100E20000CFB08F734BFA2EB0742B2EB074261EBC1
:100E3000174115EB1C154FEA813141EA92414FEA07
:100E4000823242EA90424FEA80304FEA0C7644F117
:100E5000000448EA03434EEA0B484FF0000EB2EBA1
:100E6000080C71EB030724BF624639464EEB0E0EA9
:100E70004FF0000B0018524149414BEB0B0BB2EB0A
:100E8000080C71EB03077BF1000B24BF6246394667
:100E90004EEB0E0E4FF0000B0018524149414BEB48
:100EA0000B0BB2EB080C71EB03077BF1000B24BFBB
:100EB000624639464EEB0E0E51EA020718BF46F065
:100EC000010616EB0E7655F1000254F1000103D530
:100ED000BDE88901BDE80088BDE88901BDE800489A
:100EE000B619524141EB0101A3F101037047808023
:100EF0007F7E7D7C7B7A7978777676757473727174
:100F000071706F6E6E6D6C6C6B6A6A69686867662B
:100F100066656464636362616160605F5F5E5E5DBD
:100F20005D5C5C5B5B5A5A59595858575756565531
:100F300055555454535352525251515050504F4F93
:100F40004F4E4E4D4D4D4C4C4C4B4B4B4A4A4A49E3
:100F50004949484848474747474646464545454426
:100F60004444444343434342424242414141002BB3
:100F70009C4630D477002BD01CB54FEA370703B41A
:100F80004FF010004FF01001BAF1000F06D0BCF185
:100F9000000FDCBF40F0080040F008014FF00000F7
:100FA0000FBCBDE810400BF1010BBBF1010F08BFF6
:100FB0005FEA170722BF12F1010211F101014FF0A0
:100FC000004143F1000300F0004043EA0000704795
:100FD000F9D35708D0E746EA064613F1400F4FEA27
:100FE00016461FDD13F1200FDFBF16430A4600210E
:100FF00020335B42BED0C3F1200746EA064602FA20
:1010000007F74FEA164646EA0706C3F1200722FA19
:1010100003F201FA07F721FA03F14FF0000342EA65
:101020000702A7E746EA020646EA06464FEA1646E0
:1010300046EA0106BCBF46EA0646360C4FF00003FE
:101040004FF000024FF0000194E72DE9804C9A46E2
:10105000934670B491E8380007C831EA400C48BFA5
:1010600034EA430C03D5FFF7E6FDFFF780FFF0BC41
:10107000BDE8008C2DE9804C9A46934670B491E807
:10108000380007C810F0804F08BF13F0804F03D11D
:1010900000F005F8FFF76BFFF0BCBDE8008C20F016
:1010A0007F4780EA030023F07F4C07EB0C03A3F596
:1010B0007C5300F00040A3F1FE0392F0000F00F01B
:1010C000B38095F0000F00F077802DE901494FEAD9
:1010D00011404FEA144621EA004800FB06FC24EACE
:1010E000064708FB06F607FB08F800FB07F718EBB6
:1010F00006484CEB164C4FEA124B18EB07484FEAE8
:1011000015464CEB174022EA0B4E0BFB06FC25EA7A
:1011100006470EFB06F607FB0EFE0BFB07F71EEB62
:10112000064E4CEB164C4FF000061EEB074E4CEBF8
:10113000174B18EB0B0840F1000018EB0E0B58EBA7
:10114000000840F100008F1A4FF000013CBFC94376
:10115000661B14BFB5EB040C00213CBFC943F61B52
:101160004FEA17444EEA8E0E27EA04454FEA1C4721
:1011700004FB07622CEA074C05FB07F70CFB05F69E
:1011800004FB0CFC16EB074642EB174216EB0C4631
:1011900042EB1C421BEB060658EB0202414146EAB9
:1011A0009E0601D5BDE80189B619524141EB010106
:1011B000A3F10103BDE801894FEA14454FEA114745
:1011C00024EA054621EA074C05FB07F406FB07F76E
:1011D0000CFB06F105FB0CFC11EB074144EB17443B
:1011E0004FEA124711EB0C4144EB1C4422EA074C36
:1011F00005FB07F206FB07F70CFB06F605FB0CFCEC
:1012000016EB074642EB174216EB0C4642EB1C4529
:101210006A1854F1000148BF7047B619524141EBBA
:101220000101A3F10103704795F0000F37D04FEA99
:1012300011424FEA144721EA024624EA074C02FB16
:1012400007F106FB07F70CFB06F402FB0CFC14EBA2
:10125000074441EB17414FEA154714EB0C4441EBAF
:101260001C4125EA074C02FB07F506FB07F70CFBC0
:1012700006F602FB0CFC16EB074645EB174516EB92
:101280000C4645EB1C42121951F1000148BF704752
:10129000B619524141EB0101A3F1010370474FEA36
:1012A00014454FEA114724EA054621EA074C05FB9D
:1012B00007F106FB07F70CFB06F24FF0000605FBF3
:1012C0000CFC12EB074241EB174112EB0C4251EBC5
:1012D0001C4148BF7047921841EB0101A3F1010383
:1012E0007047FEE77047000010B50121064800F086
:1012F0001FF918B105480168491C0160BDE810409C
:10130000012000F019B80000000C0140240000206A
:1013100070B5044600F016F90546601C02D004487A
:101320000078044400F00EF9401BA042FAD370BDCF
:101330002C00002070470000044910B50A680242E2
:1013400002D00860FFF7F6FF10BD00001404014052
:101350002DE9F84FDFF8B891002409F1040A0AF1E9
:10136000040B23460F270BF1040EC9E00125A5400D
:101370002A40AA427DD1674ED1F804C0ACEB0608E2
:10138000B44532D014DCBCF1030F3AD009DCBCF117
:10139000000F2AD0BCF1010F1CD0BCF1020F31D1DB
:1013A0001DE0BCF1110F17D0BCF1120F2AD119E0CA
:1013B000B8F5881F19D006DCB8F5803F15D0B8F510
:1013C000801F1FD111E0B8F5001F0ED0B8F5041F23
:1013D00018D10AE0CB6815E0CB681B1D12E0CB6882
:1013E00008330FE0CB680C330CE08B682BB1012B7A
:1013F0004FF0080303D0456104E0042302E00561D7
:1014000000E00023FF2A01D8064601E000F10406AF
:101410004FEA840501D9A5F12005D6F8008007FA26
:1014200005FC28EA0C0803FA05F548EA0508C6F8A1
:1014300000804D68ED0062D5374DAE6946F001067B
:10144000AE61AD6924F0030605F001050095334D4A
:1014500006EB050CDCF80850A607360F07FA06F86D
:1014600025EA0805DFF8B880404503D14FF00008B1
:1014700017E044E0DFF8AC80404502D14FF00108AE
:101480000FE0DFF8A480404502D14FF0020808E0E9
:10149000DFF89880404502D14FF0030801E04FF09B
:1014A000040808FA06F848EA0508CCF808804D68F0
:1014B000D9F80060ED034D4601D5164300E0964390
:1014C0002E604D68DAF80060AD03554601D516432D
:1014D00000E096432E604D68DBF80060ED025D464B
:1014E00001D5164300E096432E604D68DEF800609B
:1014F000AD02754601D5164300E096432E60641C8C
:101500000D682A46E5407FF431AFBDE8F88F000052
:1015100000040140000011100010024000000140D2
:1015200000080140000C014000100140001401407F
:101530008068084000D0012070470AB101617047FF
:101540000904FBE701488068704700002C00002078
:1015500070B5040025D094F83D00002520B984F82A
:101560003C50204600F004FA242084F83D00206816
:10157000016821F0010101602068016841F4004127
:1015800001602068016821F40041016000F04CFB1B
:101590004D4A6168914201D84C4900E04C4988426B
:1015A00001D2012070BD4B492368B0FBF1F15E68A8
:1015B00026F03F060E435E606368934206D94FF4FF
:1015C000967359434FF47A73B1FBF3F12368491CC6
:1015D0001E6A26F03F06314319626168914210D8B5
:1015E0004900401EB0FBF1F2521CC2F30B02042A68
:1015F00001D2042022E0B0FBF1F0401CC0F30B004C
:101600001CE0A268F2B301EBC10303EB0116431E19
:10161000B3FBF6F35B1C43F480431B0549D092B344
:1016200001EBC10202EB0111401EB0FBF1F0401CC6
:10163000C0F30B0040F4804040F400402168CA69C8
:101640004CF6FF739A431043C861D4E90710014375
:101650002068026822F0C00211430160D4E903014E
:1016600001432068826848F2FF339A431143816046
:10167000D4E9050108432168CA6822F0FF0210433B
:10168000C86001E00EE016E02068016841F0010149
:1016900001602564202084F83D00256384F83E50D5
:1016A000002070BD01EB4106431EB3FBF6F35B1C4B
:1016B000B3E70120C2E701EB4101401EB0FBF1F0AE
:1016C000401CC0F30B00B7E7A086010080841E0019
:1016D00000093D0040420F002DE9FF4F81B08946CF
:1016E0000446FFF72FFF054694F83D004FF0010830
:1016F00020287DD11923012250492046009500F071
:10170000F3FE002874D194F83C00012870D0012029
:1017100084F83C0020680168C90703D1016841F0E2
:10172000010101602068016821F40061016024204A
:1017300084F83D00002626644148E0624FF0011B1A
:1017400020272068016841F4807101600095002223
:1017500059462046049B00F0C7FE50B1206800683F
:10176000C00502D54FF400702064032005B0BDE829
:10177000F08F216809F0FE000861FFF7E3FE2168A1
:10178000054648694969C0F34000C1F380214FF024
:10179000A00A0FE0FFF7D6FE411B0498814200D853
:1017A00008B984F83DA0216848694969C0F3400040
:1017B000C1F3802194F83D20A02A02D008B9002965
:1017C000E8D084F83D7020684169C943890716D480
:1017D000016841F400710160206841698069192342
:1017E000012216492046009500F07EFEB8B900E0BF
:1017F00021E084F83D7084F83C600020B6E7016881
:1018000041F40071016021686FF480604861192320
:1018100001220A492046009500F066FE08B1012029
:10182000A4E7039808F1010880458AD384F83D7045
:1018300084F83C60F3E7022098E700000200100003
:101840000000FFFF2DE9F84F1F4690468A460446E8
:10185000DDF82890FFF776FE054694F83D00202835
:101860007FD11923012240492046009500F03CFE1B
:10187000002876D194F83C00012872D0012084F829
:101880003C0020680168C90703D1016841F00101EB
:1018900001602068016821F400610160212084F862
:1018A0003D00102084F83E0000262664C4F8248001
:1018B0006785608D20852D48E0622B464A4651465B
:1018C000204600F09DFD90B9206841698069009034
:1018D00036E02A464946204600F085FE50B1206C8D
:1018E000042804D12068016841F4007101600120DE
:1018F000BDE8F88F606A216800780861606A401C62
:101900006062618D491E6185218D491E89B22185E4
:1019100022685369DB435B070BD451B10078106137
:10192000606A401C6062608D401E6085208D401E94
:1019300020852A464946204600F0B0FD0028CED139
:10194000208D0028C5D154F83D0B016841F4007189
:101950000160202004F81E09E67766770020C7E7BB
:10196000FFE70220C4E70000020010000000FFFFB4
:1019700010B586B000210091019102910391006899
:101980000F4988421AD10F4CA06940F00800A061AD
:10199000A069694600F008000490C0200090122061
:1019A0000190032003900848FFF7D2FCE06940F45F
:1019B0000010E061E06900F40010049006B010BD72
:1019C0000054004000100240000C014002488168B1
:1019D00002781144816070472C000020074810B540
:1019E000016841F010010160032000F075F80F203C
:1019F00000F006F800F024F8002010BD002002409E
:101A000070B50D4D04464FF47A712878B1FBF0F0B3
:101A10000A490968B1FBF0F000F0DCFA48B9102C73
:101A200007D200222146501E00F036F800206C60DC
:101A300070BD012070BD00002C0000203800002087
:101A40000C4808B5816941F001018161816901F0AB
:101A500001010091C16941F08051C161C06900F08C
:101A6000805000900448416821F0E06141F000712D
:101A7000416008BD0010024000000140002809DB61
:101A800000F01F02012191404009800000F1E02098
:101A9000C0F8001170470000F0B40E4B1B680C46F4
:101AA000C3F30223C3F10705042D00D90425191D32
:101AB000072901D2002300E0DB1E012606FA05F10A
:101AC000491E214099409E40761E16403143F0BC8D
:101AD00001F082B80CED00E0064900F0070208684A
:101AE0004FF6FF03184040EA0220034A1043086003
:101AF000704700000CED00E00000FA052DE9F0470A
:101B00000F46050061D0434E306800F00700B84230
:101B100009D2306820F0070038433060306800F0A8
:101B20000700B84251D128683B4C810712D54007C5
:101B300003D5606840F4E06060602878000703D552
:101B4000606840F4605060606068A96820F0F00050
:101B5000084360602878C00728D06868012810D042
:101B60002168022810D0890700292EDA616821F047
:101B7000030101436160FFF7E5FC804641F28839CB
:101B80000DE021688903EFE78901EDE7FFF7DAFC53
:101B9000A0EB0801494502D90320BDE8F087606841
:101BA000696800F00C00B0EB810FEFD1306800F0F5
:101BB0000700B8420BD9306820F007003843306086
:101BC000306800F00700B84201D00120E5E728782E
:101BD000400705D56068E96820F4E060084360606C
:101BE0002878000706D56068296920F4605040EA2B
:101BF000C100606000F028F86168084AC1F3031171
:101C0000515CC8400649086006480068FFF7F8FEC6
:101C10000020C2E700200240001002409A43000862
:101C20003800002030000020044805490068496859
:101C3000044AC1F30221515CC840704738000020BB
:101C400000100240AA43000812A185B00FC98DE818
:101C50000F0014A0144A006804905168134801F062
:101C60000C03042B10D0082B0ED1C1F38343C903FE
:101C70001DF803000AD5516804AAC1F34041515C24
:101C80000A4A5043B0FBF1F005B070470849484399
:101C9000FAE7000002030405060708090A0B0C0D09
:101CA0000E0F1010010200000010024000127A0016
:101CB00000093D002DE9F84F040070D02078C04D98
:101CC000C00749D06868C0F38100012807D0686860
:101CD000C0F38100022809D16868C00306D52868CE
:101CE000800339D560680028E7D035E06068B0F53A
:101CF000803F0BD010B1B0F5A02F11D0286820F490
:101D000080302860286820F4802002E0286840F4B1
:101D100080302860606890B1FFF714FC06460AE046
:101D2000286840F480202860F0E700BFFFF70AFC35
:101D3000801B642873D828688003F7D50CE0FFF770
:101D400001FC064605E000BFFFF7FCFB801B642892
:101D5000F0D828688003F7D420789A4E80074FF097
:101D600001094FF0000839D5686810F00C0F07D052
:101D70006868C0F38100022809D16868C00306D4EE
:101D80002868800714D52069012808D110E020694F
:101D9000B0B1C6F80090FFF7D5FB074605E00AE1B1
:101DA000FFF7D0FBC01B0228C4D828688007F7D5EE
:101DB0002868616920F0F80040EAC10028600DE061
:101DC000C6F80080FFF7BEFB074604E0FFF7BAFB4A
:101DD000C01B022823D828688007F7D42078000782
:101DE0002CD57948A169D9B1C0F80090FFF7AAFBBA
:101DF000074604E0FFF7A6FBC01B02280FD8686A5D
:101E00008007F7D571484FF4FA510068B0FBF1F044
:101E1000009000BF0098411E0091FAD20EE080E0D1
:101E2000C0F80080FFF78EFB074604E0FFF78AFB4F
:101E3000C01B022875D8686A8007F7D4207840074D
:101E400060D5E8690027C00008D4E86940F08050F8
:101E5000E861E869012700F0805000905C48016863
:101E6000C90513D40168834641F480710160FFF70E
:101E700069FB824606E000BFFFF764FBA0EB0A00A7
:101E800064284ED8DBF80000C005F5D5E0680128CD
:101E90000AD008B1052813D0286A20F00100286272
:101EA000286A20F0040002E0286A40F0010028625D
:101EB000E06841F2883B98B1FFF744FB82460BE0B3
:101EC000286A40F004002862EEE700BFFFF73AFB03
:101ED000A0EB0A0159455AD8286A8007F6D50CE0CC
:101EE000FFF730FB824605E0FFF72CFBA0EB0A0171
:101EF00059454CD8286A8007F6D41FB1E86920F00C
:101F00008050E861E06988B36968C1F38101022902
:101F100044D00228C6F8608004D0FFF713FB0446C3
:101F200038E034E0FFF70EFB074604E0FFF70AFB5A
:101F3000C01B02282BD828688001F7D4206AB0F58E
:101F4000803F05D16868A16820F4003008436860CC
:101F5000D4E908010843696821F4741108436860F2
:101F6000C6F86090FFF7EEFA044606E025E000BFF1
:101F7000FFF7E8FA001B022809D828688001F7D586
:101F80001BE000BFFFF7DEFA001B022802D9032086
:101F9000BDE8F88F28688001F4D40EE00128F7D05E
:101FA0006868226A00F48031914204D1616A00F4C9
:101FB0007010884201D00120EAE70020E8E7000025
:101FC00000100240000042428004424238000020DB
:101FD0000070004010B5401EB0F1807F01D3012099
:101FE00010BD4FF0E02460610F21601700F0F4FD98
:101FF0000020A06107202061002010BD70477047BD
:1020000070B590F83C20012A26D0012480F83C408D
:10201000022280F83D2003685A689D6822F070060D
:102020000A6832435A600D4B02689A4208D0B2F1F6
:10203000804F05D00A4B9A4202D00A4B9A4204D1F3
:10204000496825F080031943916080F83D400021E4
:1020500080F83C10084670BD022070BD002C014085
:10206000000400400008004010B5040003D094F8BC
:102070003D0010B107E0012010BD002084F83C00B5
:10208000204600F01FF8022084F83D00211D206842
:1020900000F022FD012084F8460084F83E0084F818
:1020A0003F0084F8400084F8410084F8420084F83E
:1020B000430084F8440084F8450084F83D00002083
:1020C00010BD000008B50068B0F1804F12D10A4879
:1020D000C16941F00101C161C069002200F0010045
:1020E000009011461C20FFF7D7FCBDE808401C20DB
:1020F000FFF7C4BC08BD00000010024090F83D107E
:10210000012901D001207047022180F83D100168AB
:10211000CA6842F00102CA6000680B49884208D0D0
:10212000B0F1804F05D00949884202D00849884261
:1021300004D1816801F00701062903D0016841F04C
:102140000101016000207047002C014000040040A4
:102150000008004070B5044690F83C00012817D0F4
:10216000012584F83C50022084F83D0020688268F4
:1021700022F0770222F47F4282600868502830D033
:102180000DDC20284DD005DC98B310283BD148E069
:10219000022070BD302844D0402834D139E0602876
:1021A00028D0702806D0B0F5805F2CD0B0F5005F45
:1021B00029D10AE0CB68D1E90121206800F0C2FCF6
:1021C0002068816841F0770109E0CB68D1E90121FD
:1021D000206800F0B7FC2068816841F4804181608C
:1021E00011E0CA684968206800F0BEFC50212068F0
:1021F00007E016E0CA684968206800F0C6FC602164
:10220000206800F0A9FC84F83D50002084F83C00D0
:1022100070BDCA684968206800F0A6FC40212068AB
:10222000EFE7226801461046EBE7704770B50446B9
:10223000006801694FF00005C943890715D4C168DA
:10224000C943890711D4E91E016101202077206864
:1022500080698007204602D0FFF7E7FF04E000F026
:1022600098F8204600F096F8257720680169C94360
:10227000490717D4C168C943490713D46FF0040153
:102280000161022020772068806910F4407F204699
:1022900002D0FFF7CAFF04E000F07BF8204600F010
:1022A00079F8257720680169C943090716D4C16800
:1022B000C943090712D46FF0080101610420207797
:1022C0002068C0698007204602D0FFF7AEFF04E017
:1022D00000F05FF8204600F05DF82577206801697E
:1022E000C943C90617D4C168C943C90613D46FF0DE
:1022F00010010161082020772068C06910F4407F38
:10230000204602D0FFF791FF04E000F042F820469B
:1023100000F040F8257720680169C943C90708D152
:10232000C168C943C90704D1891E0161204600F074
:1023300033F820680169C943090609D4C168C94353
:10234000090605D46FF0800101612046FFF756FEB3
:1023500020680169C943490609D4C168C9434906CF
:1023600005D46FF040010161204600F02FF820688D
:102370000169C94389060BD4C168C943890607D4DA
:102380006FF0200101612046BDE87040FFF737BEC5
:1023900070BD70477047000010B50068B0F1804F05
:1023A00011D1094C2069401C2061E168A16060687E
:1023B000E06000F0A9FF4FF0FF3101F002F9216861
:1023C00000F0A2FF206010BD100000207047FEE763
:1023D00001684A69D24352050FD46FF480624A61A2
:1023E000002140F8301F202242738173026942F0BD
:1023F0000402026101730120704700207047000051
:10240000F8B50446C06A1E460D461746082807D090
:10241000012805D010F5803F02D0206B122804D18E
:102420002068016841F480710160134600224FF07A
:1024300001112046009600F057F840B1206800686E
:10244000C00502D54FF4007020640320F8BD206958
:10245000B0F5804F0ED00620216800EAD51040F07C
:10246000F000086133463A460B49204600F070F808
:1024700078B902E005F0FE0000E0E8B221680861EA
:10248000054933463A46891F204600F061F8002886
:10249000DCD00120F8BD00000800010070B5164630
:1024A0000D4604460DE02046FFF792FF08B10120DB
:1024B00070BD681C05D0FFF745F8801BA84207D8FF
:1024C00035B120684069C0434007ECD4002070BD9E
:1024D000002044F8300F20216173A073216941F07E
:1024E000200121612073E2E72DE9F0471E46904666
:1024F0000D460446C1F30747DDF8209008E0701C44
:1025000006D0FFF71FF8A0EB0900B0420FD876B154
:102510002068012F18D0806925EA00000004000C13
:1025200014D000214145EAD00020BDE8F08700200A
:1025300044F8300F20216173A073216941F020011C
:10254000216120730120F0E74069E5E70121E9E717
:102550002DE9F0479A4691460E46044600254FF075
:102560002008C1F3074725E020684069C0434005C3
:1025700014D42068016841F40071016021686FF48F
:1025800080604861256384F83D8084F83E50206C6B
:1025900040F00400206484F83C501FE0B9F1FF3F94
:1025A00008D0FEF7CFFFA0EB0A0149450CD8B9F1DE
:1025B000000F09D02068012F13D0806926EA00009F
:1025C0000004000C0BD0CFE744F8305F84F80D8096
:1025D000A573206940F02000206125730120BDE82B
:1025E000F0874069EAE770B516460D4604460DE0EF
:1025F0002046FFF7EDFE08B1012070BD681C05D034
:10260000FEF7A0FF801BA84207D835B120684069BB
:10261000C0430006ECD4002070BD002044F8300F09
:1026200020216173A073216941F020012161207391
:10263000E2E7000070B586B00024244800940194BD
:1026400002940394816941F010018161816901F074
:1026500010010491816941F020018161816901F0DB
:1026600020010491816941F008018161816901F0D3
:1026700008010491816941F0040181618069144E6F
:1026800000F004004FF40055049000222946304623
:10269000FEF753FF0220CDE902400095012569466F
:1026A00001953046FEF754FE0A480095CDE9010435
:1026B00069460948FEF74CFE002211460620FFF746
:1026C000EBF90620FFF7DAF906B070BD0010024002
:1026D0000010014000001110000C014010B586B040
:1026E00000241648009401940294039404944FF03B
:1026F00080410594016041F63F71C0E90114C910A1
:10270000C0E903148461FFF7AFFC08B172B6FEE7BD
:102710004FF48050009069460848FFF71BFD08B150
:1027200072B6FEE7049404A904480594FFF768FC18
:10273000002801D072B6FEE706B010BDA404002048
:10274000FEE7FEE77047000070B5802813D24029ED
:1027500011D20B4B012401F007051E79AC40094B47
:10276000C90800EBC1100EB132B101E0012A03D05B
:10277000195CA143195470BD195C2143FAE70000AC
:10278000080000203C00002028B1FF224FF48061A7
:102790000248FDF7E7BD0022F8E700003C000020FA
:1027A000014A1080518070470800002010B500F0E9
:1027B00097FA44F62063012278215448FEF78CFFF3
:1027C00008B1002010BD40F6C210401EFDD1AE225F
:1027D0000021782000F08AFA20220021782000F0E1
:1027E00085FA10220021782000F080FAB022002122
:1027F000782000F07BFAC8220021782000F076FAD9
:1028000000221146782000F071FA10220021782071
:1028100000F06CFA40220021782000F067FA812253
:102820000021782000F062FAFF220021782000F0D9
:102830005DFAA1220021782000F058FAA62200219A
:10284000782000F053FAA8220021782000F04EFAF8
:102850003F220021782000F049FAA42200217820AC
:1028600000F044FAD3220021782000F03FFA002241
:102870001146782000F03AFAD5220021782000F0A5
:1028800035FAF0220021782000F030FAD922002118
:10289000782000F02BFA22220021782000F026FA7E
:1028A000DA220021782000F021FA1222002178207B
:1028B00000F01CFADB220021782000F017FA202219
:1028C0000021782000F012FA8D220021782000F0FB
:1028D0000DFA14220021782000F008FAAF2200211E
:1028E000782000F003FA2E220021782000F0FEF973
:1028F0000020FFF749FF00F071F805480021018032
:10290000418001214171084610BD000050040020A3
:10291000080000202DE9F047814625480D469246E3
:1029200001882A781144802905D280464088697838
:102930000844402802D30020BDE8F08700262AE0A2
:10294000A9F1200101FB00606A68002432F81070D0
:102950001DE000BF07FA04F0000409D5B8F8021022
:10296000B8F800003144204489B280B252460BE0EE
:10297000BAF1000F1AD00022B8F80210B8F800001F
:102980003144204489B280B2FFF7DEFE641C28780F
:10299000A042DFD8761C6878B042D1D8B8F80010D1
:1029A0002A7848461144A8F80010C5E70122E3E759
:1029B0000800002070B515460E46044609E02A4678
:1029C0003146FFF7A7FF2178884201D0C8B270BD19
:1029D000641C20780028F2D1C0B270BD70B5104DD3
:1029E000002400BF04F1B000C2B20021782000F042
:1029F0007DF900221146782000F078F9102200219C
:102A0000782000F073F905EBC41280234021782070
:102A100000F07CF9641CE4B2082CE3D370BD000024
:102A20003C0000207047000010B50F4C6068401C4F
:102A30006060642814D1206800EB8000400000F042
:102A400021FB0022094B00F035FB0022084B00F06F
:102A5000C1F900F08DF9074908600020606020602E
:102A6000BDE81040FEF7B2BF2400002000001E4069
:102A70000020AC401400002010B590B0282168461A
:102A8000FDF778FC14210AA8FDF774FC02200090E1
:102A90000120049010200024059007946846FFF759
:102AA00009F908B172B6FEE70F20CDE90A040C94CB
:102AB0000D9400210AA80E94FFF720F8002801D0F9
:102AC00072B6FEE710B010BD704700000148FFF776
:102AD000ADBB0000A4040020F0B50268164B174CF3
:102AE000174D4FF08047984205D0B84203D0A0421E
:102AF00001D0A84203D122F070064A6832439842BE
:102B000005D0B84203D0A04201D0A84203D122F49C
:102B10004074CA6822434C6922F08002224302605A
:102B20008A68C2620A688262984201D109690163B7
:102B300001214161F0BD0000002C01400004004073
:102B40000008004010B5846842EA032224F47F4460
:102B50000A432243826010BD826822F070020A4359
:102B600042F007018160704710B5036A046A24F0DF
:102B700001040462846924F0F00444EA021423F09E
:102B80000A020A438461026210BD10B5036A23F091
:102B9000100303628369046A23F4704343EA023238
:102BA00024F0A00343EA01118261016210BDFEE737
:102BB000490050EAC12018BF04204A0D18BF40F058
:102BC000010040F2FF72B2EB515F08BF40F002001B
:102BD000012808BF052070470907090E002804DBFB
:102BE00000F1E02080F80014704700F00F0000F1C1
:102BF000E02080F8141D704730380A2801D20120E7
:102C00007047002070470000FEF7E8FEFFF734FF32
:102C1000FFF710FD274826494FF4804201602649FE
:102C2000416000218160C0E9031241618161C1619D
:102C30000162FEF78DFC08B172B6FEE7FFF74EFDAC
:102C40001C485430FFF75AFAFFF7B0FD1B4C4FF405
:102C5000FA7500210846FFF7A3FD606800F028FB25
:102C6000024614480B4616A11438FDF7B9FA11486C
:102C7000012216491438FFF79DFE20210020FFF79E
:102C80008FFD206800F014FB02460A480B4610A195
:102C90001438FDF7A5FA074801220C491438FFF74C
:102CA00089FEFFF79BFE2846FEF732FBD1E70000C6
:102CB0000054004050040020801A0600100000203C
:102CC00053706565643A25322E316600000000209D
:102CD000566F6C756D653A25322E31660000000026
:102CE0000148401EFDD1704790D003001CB502235F
:102CF0008DF804100A2100918DF80520014601AAE3
:102D00000148FEF79FFD1CBD5004002070B5C2B005
:102D100000248DF8041001A904E0155D0E19641C4F
:102D20007570E4B29C42F8D30A2100915B1C014605
:102D30009BB201AA0248FEF785FD42B070BD0000BB
:102D40005004002010B500290AD00878002807D0C8
:102D500005487844FDF7B6FE002801D0002010BDDC
:102D60000248784410BD0000161700000E1700003E
:102D700021F00042A2F16052B2F5801F01F0004341
:102D800028BFD2F17F6C0BD95FEA001C43EAC20274
:102D900042EB507018BF704728BF20F00100704709
:102DA000B2F5801FBCBF184670474FEA410C1CF5B6
:102DB000001F02D2084600F055BB70B500F024FA9F
:102DC00000000089FFF7F6BF4FF00040A0F580003B
:102DD000704700002DE9C04130B4DFF8A0C23CEAE2
:102DE000111418BF3CEA131400F0EC8081EA0305CB
:102DF0001CEA111444EAD57418BF1CEA131500F03C
:102E0000C780A4EB05044FF0004545EAC12145EA1F
:102E1000C32341EA505143EA525304F17F7499426B
:102E200004F500344FEAC0204FEAC22208BF9042A6
:102E300000F09C804FEA13650FF24016765D4FEA72
:102E4000134506FB05F7C7F1807706FB07F74FEA46
:102E5000D737A7FB03687642C8F58038A7FB06CEB4
:102E600038BFA8F1010807FB08E64FF0000EA6FBEB
:102E7000028CE6FB03CEDCF1000CCEF1004E38BF35
:102E8000AEF1010EA6FB0C584FF000074FF0000505
:102E9000E6FB0E87A1FB08C6A0FB07CE16EB0E06CD
:102EA00045F10005E1FB076515F1E04E7EBFA4F595
:102EB00080345FEA46066D4116F1800745F1000552
:102EC0004FEA17274FEA066647EA0567A6F1DE468E
:102ED000B6F1805F4FEA15251FD9384624F0010C62
:102EE00005EBC471BCF1FE6F01EB0C1102D8F0BC14
:102EF000BDE8008124425CBF01F5801E9EEAC47FCC
:102F000002D4F0BCBDE80081244238D4F0BCA1F169
:102F1000C041BDE8004100F0C5B94FEAD22242EA03
:102F200043524FEAD323A7FB02864FEAD02040EA60
:102F3000415007FB03661EEA0E0F4FEAD12105FB45
:102F4000026658BFA6EB0056B6EB00564FEA520E8B
:102F50004EEAC37E18EB0E0E56EB530EBDD518EBA2
:102F600002085E417F1C55F10005B6E74FF480155D
:102F70004FF000074FF000064FF00008ADE7F0BC3F
:102F80004FF0000001F1C04101F00041BDE80081B7
:102F900011EA0C1F0CEA131500D00CE013EA0C1F09
:102FA00000F025804FF00000F0BC81EA030101F041
:102FB0000041BDE80081F0BCBDE8004181EA0301A9
:102FC00000F070B9F0BCBDE8004170B500F01CF92C
:102FD000097EFC3E00F007B881EA03014FF00000D3
:102FE00001F00041704781EA030100F05BB9F0BCD9
:102FF000BDE800414FF0000021497047FFFDFBF99B
:10300000F7F5F4F2F0EEEDEBE9E8E6E4E3E1E0DE1B
:10301000DDDBDAD8D7D5D4D3D1D0CFCDCCCBCAC88D
:10302000C7C6C5C4C2C1C0BFBEBDBCBBBAB9B8B7B4
:10303000B6B5B4B3B2B1B0AFAEADACABAAA9A8A8A7
:10304000A7A6A5A4A3A3A2A1A09F9F9E9D9C9C9B75
:103050009A99999897979695959493939291919020
:103060008F8F8E8E8D8C8C8B8B8A898988888787B1
:103070008685858484838382828181800000FF0726
:103080000000F87F10F0004248BF4042B0FA80F3E1
:1030900010FA03F10AD0C3F11D0303F580634FEA70
:1030A000415002EB035202EBD12170474FF0000078
:1030B00070470000DFF848C170B51CEA111E1EBF42
:1030C0001CEA13159EEA0C0F95EA0C0F00F06F80B6
:1030D00081EA030423EA4C134EEAD47E21EA4C1120
:1030E00041F4801143F48013AE44A1FB024CA0FBD9
:1030F0000365AEF17F7E361955EB0C05A1FB034C41
:103100004CF10003A0FB021C16EB0C06654153F1C9
:103110000003094218BF46F0010613F4007F0BD1EB
:103120004FEA03314FEA0530340341EA155140EAD2
:1031300016506FF003020AE04FEAC3214FEAC520A0
:10314000F40241EA555140EA56506FF0020202EB98
:103150002E4201EB025585EACE710AD05FEA440C9B
:1031600018BF24F0004450F1000041F1000120EAB2
:10317000D47040F2FE7C624500D270BDA84214BFFC
:103180004FF080444FF04044002E08BF0024BEF1B1
:10319000806FA8BFA1F1C041BDE8704080F282807D
:1031A0004FF0000001F1C04101F0004170479EEA7C
:1031B0000C0F0CEA131518BF95EA0C0F06D04FF050
:1031C000000081EA030E0EF0004170BD00F01CF813
:1031D0008900013E00F007B800F009B84FEA430C3F
:1031E0005FEA5C5C08D081EA030100F05BB84FEA5B
:1031F000410C5FEA5C5CF6D14FF00000014970477A
:103200000000FF070000F87F0EF1020E2EF0030E03
:103210005EF8046B364205D4012A43EB030515F52D
:10322000001F12D8012841EB010C1CF5001F0CD81F
:103230000ED14FEAD17C15F5001F0CEB4C0C0CF1B4
:10324000020C08BF4CEBD37C04E04FF0080C01E00B
:103250004FEAD37C0CEB4C0526FA05F606F0070680
:10326000B6F1040C06D20EEB860CBDE870404CF0B3
:10327000010C6047DFE80CF0090B02024FF000413F
:103280004FF00000A1F5002170BD1946104601283D
:1032900051EB010418BFD4F5001484BF002001F0E5
:1032A000004170BD0808A0F500114FEA31017047D8
:1032B00043004FEAD30C4FEA3C0C43401FBF40078A
:1032C0000CF1605113F0FE4F70471CF0006F03D1FA
:1032D00000200CF0004170470CF0004343EA5070AE
:1032E00010B540EACC0000F077F800BF0000009273
:1032F0004FEA0001FFF7D6BF4FF000414FF000004A
:10330000A1F500217047000090EA010F48BF81F04D
:10331000004100F1B480421A3CBF801A89184FEA7C
:10332000D0524FF07F4C1CEA410FA2EBD15318BF93
:103330009CEA026F00F03B804FF0004C4CEA00200A
:103340004CEA012121FA03FC10EB0C0C1ED202F115
:10335000FF325FEA1C2040EBC25038BF70471CF0C0
:103360007F0F4FEA400C18BFBCF17F4F38BF70474A
:10337000C3F12003994008BF20F00100BCF17F4F4A
:1033800038BF7047A0F1C04000F06CB84FEA3C0075
:10339000000A40EBC25028BF1CF0FF0F4FEA400C60
:1033A000E6D018BFBCF17F4F38BF7047EAE79CEA10
:1033B000026F05D010EA5C0F08BF00F000407047B4
:1033C00010B500F009F800BF64FBBE3E014800F0F4
:1033D000C6B800BF0000C07F0EF1020E2EF0030E33
:1033E0005EF8044B244204D44FEA4102B2F17F4F0D
:1033F00011D84FEA4003B3F17F4F0CD80ED14FEAFA
:10340000D07CB2F17F4F0CEB4C0C0CF1020C08BFDE
:103410004CEBD17C04E04FF0080C01E04FEAD17C8A
:103420000CEB4C0324FA03F404F00704B4F1040C8D
:1034300006D20EEB840CBDE810404CF0010C604746
:10344000DFE80CF0070802024FF00040A0F5800012
:1034500010BD0846420018BFD2F1807288BF00F04C
:10346000004010BDFF2141EAD050C0057047000068
:1034700090EA010F48BF81F000413FF54CAF421A7E
:1034800004D882F00042A0EB020011444FEAD0526F
:103490004FF07F4C1CEA410FA2EBD15318BF9CEABE
:1034A000026F4AD04FF0004C4CEA00204CEA012158
:1034B00021FA03FCB0EB0C0C0FD412F0FE0F36D047
:1034C0005FEA4C001DD5001240EBC25038BF704778
:1034D0001CF03F0F18BF70470BE0A2F101025FEA3A
:1034E0001C2040EBC25038BF70471CF07F0F18BF44
:1034F0007047C3F12003994014BF401E20F0010023
:10350000704780084FEA122308BF7047B0FA80FC6A
:10351000A2EB0C02CCF1280C60FA0CF093EA122F0B
:1035200004BF00EBC25070474FEAC3707047130AE4
:103530005FEADC1008BF7047F6E79CEA026F04D030
:1035400010EA5C0F08BF0020704710B5FFF744FF7A
:1035500040DFF63E81F000407047FDF70EB80CF0FA
:103560000F03092B08BF082000F051800A2B0BD055
:10357000082B18BF704708BF1CF0400F0AD04FF04F
:1035800000004FF0000170471CF0400F18BF4FF0D3
:10359000004070471CF0100F08D020F0704300F07E
:1035A0007F4242EAD3014FEA4370704700F0604027
:1035B00021F07F4242EA000201F07F4040EA72704F
:1035C00070474FF0FF0212EAD0521CBF92F0FF0387
:1035D0008B42C2BFD14200EBC1507047002A0AD0D3
:1035E000002B0BD0002900F00040A4BF40F0FE40AB
:1035F00040F40000704700F00040704743024FF075
:103600000B0C18BF4CF0806C7FF4E0AE70471CF4DC
:10361000801F11D01CF4E02F03D06FEACC31490099
:1036200070474FF04050EFF3008222F0704242EAC0
:10363000000282F3008870474FF0000070470000DE
:10364000000000000000000000000000000000007A
:10365000000000000000000000000000000000006A
:1036600000000000000C000C000C000C000C000C12
:10367000000C000C000C000C000C0000000C000CF6
:103680000000000000000000001B001B001B001BCE
:10369000001B00000000000000000000000000000F
:1036A00000000000000000000000000080198019E8
:1036B00080198019C07FC07F80190033C07FC07F10
:1036C000003300330033003300000000000000002E
:1036D000001E003F807580650074003C001E0007DE
:1036E0008005806580658075003F001E0004000431
:1036F00000000000007000D840D8C0D880D9007306
:103700000006000C801BC036C066C046C0068003A1
:103710000000000000000000001E003F00330033E6
:103720000033001E000CC03CC06680638061806373
:10373000C03E801C0000000000000000000C000CD7
:10374000000C000C000C0000000000000000000055
:1037500000000000000000000000000000008000E9
:1037600000010003000600060004000C000C000C21
:10377000000C000C000C0004000600060003000111
:103780008000002000100018000C000C000400064F
:10379000000600060006000600060004000C000CEF
:1037A0000018001000200000000C002D003F001E3B
:1037B00000330000000000000000000000000000D6
:1037C00000000000000000000000000000000000F9
:1037D000000C000C000C000CC0FFC0FF000C000C23
:1037E000000C000C000000000000000000000000C1
:1037F00000000000000000000000000000000000C9
:103800000000000000000000000C000C0004000498
:1038100000080000000000000000000000000000A0
:1038200000000000001E001E00000000000000005C
:103830000000000000000000000000000000000088
:103840000000000000000000000000000000000078
:10385000000C000C0000000000000000000300034A
:1038600000030006000600060006000C000C000C19
:10387000000C0018001800180000000000000000F4
:10388000001E003F0033806180618061806D806D2B
:103890008061806180610033003F001E00000000F5
:1038A000000000000006000E001E00360026000684
:1038B00000060006000600060006000600060006D8
:1038C0000000000000000000001E003F80738061C7
:1038D0008061800100030006000C001800300060C9
:1038E000807F807F0000000000000000001C003E80
:1038F000006300630003000E000E000380018001DE
:1039000080618073003F001E000000000000000086
:103910000006000E000E001E001E001600360036C7
:103920000066807F807F0006000600060000000021
:1039300000000000007F007F006000600060006EFB
:10394000007F80638001800180618073003F001EE2
:103950000000000000000000001E003F8033806176
:103960000060006E007F80738061806180618033C1
:10397000003F001E0000000000000000807F807FEC
:1039800080010003000300060006000C000C000C80
:1039900000080018001800180000000000000000D7
:1039A000001E003F8063806180610021001E003F97
:1039B0008061806180618061003F001E0000000026
:1039C00000000000001E003F007380618061806184
:1039D0008073803F801D800180610073003F001E66
:1039E00000000000000000000000000000000000D7
:1039F000000C000C000000000000000000000000AF
:103A0000000C000C0000000000000000000000009E
:103A1000000000000000000C000C0000000000008E
:103A200000000000000C000C00040004000800006E
:103A300000000000000080008003000E00380060DD
:103A40000038000E8003800000000000000000002D
:103A5000000000000000000000000000807F807F68
:103A600000000000807F807F000000000000000058
:103A70000000000000000000000000000000004006
:103A80000070001C000780010007001C007000404F
:103A9000000000000000000000000000001F803F48
:103AA000C071C060C000C00180030007000E000CA0
:103AB000000C0000000C000C0000000000000000E2
:103AC000001E003F803180718063806F806D806D4B
:103AD000806F806700600032003E001C0000000024
:103AE00000000000000E000E001B001B001B001B4E
:103AF00080318031803F803F8031C060C060C060D5
:103B00000000000000000000007C007E00630063F5
:103B100000630063007E007E0063806180618063DB
:103B2000007F007E0000000000000000001E003F3B
:103B300080318061006000600060006000600060B3
:103B400080618031003F001E000000000000000086
:103B5000007C007F006380638061806180618061A0
:103B60008061806100630063007E007C00000000D3
:103B700000000000807F807F0060006000600060C7
:103B8000007F007F0060006000600060807F807FB9
:103B90000000000000000000807F807F0060006067
:103BA00000600060007F007F0060006000600060D7
:103BB000006000600000000000000000001E003FE8
:103BC000803180610060006000608063806380619C
:103BD00080618031803F001E000000000000000076
:103BE000806180618061806180618061807F807F91
:103BF000806180618061806180618061000000007F
:103C000000000000003F003F000C000C000C000C06
:103C1000000C000C000C000C000C000C003F003FDE
:103C20000000000000000000800180018001800190
:103C3000800180018001800180018061806180734A
:103C4000003F001E0000000000000000C060806116
:103C5000006300660066006C0078007C0066006609
:103C6000006380618061C06000000000000000000F
:103C70000060006000600060006000600060006044
:103C80000060006000600060807F807F00000000B6
:103C900000000000C071C071C07BC07AC06AC06AF9
:103CA000C06EC064C060C060C060C060C060C06002
:103CB0000000000000000000807180718079807930
:103CC0008079806D806D806D80658067806780679A
:103CD000806380630000000000000000001E003FC1
:103CE000003380618061806180618061806180617A
:103CF00080610033003F001E000000000000000053
:103D0000007E007F80638061806180618063007FCE
:103D1000007E006000600060006000600000000045
:103D200000000000001E003F003380618061806160
:103D3000806180618061806580670033803F401EC4
:103D40000000000000000000007E007F80638061B2
:103D500080618063007F007E006600630063806195
:103D60008061C0600000000000000000000E001F25
:103D70008031803100300038001E000780038061F0
:103D800080618031003F001E000000000000000044
:103D9000C0FFC0FF000C000C000C000C000C000C5D
:103DA000000C000C000C000C000C000C00000000CB
:103DB00000000000806180618061806180618061BD
:103DC000806180618061806180618073003F001E3E
:103DD0000000000000000000C060C060C0608031D2
:103DE00080318031001B001B001B001B000E000EE9
:103DF000000E00040000000000000000C0C0C0C0B1
:103E0000C0C0C0C0C0C0C0CC804C804C805E80525E
:103E1000805280738061806100000000000000001B
:103E2000C0C0806080610033003B001E000C000CAD
:103E3000001E001F003B80718061C0C000000000B8
:103E400000000000C0C08061806100330033001EAC
:103E5000001E000C000C000C000C000C000C000CF0
:103E60000000000000000000803F803F8001000350
:103E700000030006000C000C001800180030006061
:103E8000807F807F000000000000000F000F000C0A
:103E9000000C000C000C000C000C000C000C000CC2
:103EA000000C000C000C000C000C000F000F0000B8
:103EB000001800180018000C000C000C000C000684
:103EC00000060006000600030003000300000000D7
:103ED0000000001E001E0006000600060006000688
:103EE00000060006000600060006000600060006A2
:103EF0000006001E001E0000000C000C001E001238
:103F00000033003380618061000000000000000089
:103F100000000000000000000000000000000000A1
:103F20000000000000000000000000000000000091
:103F300000000000000000000000E0FF00000000A2
:103F400000380018000C0000000000000000000015
:103F50000000000000000000000000000000000061
:103F6000000000000000000000000000001F803F73
:103F700080618001801F803F80618063807FC038C6
:103F800000000000000000000060006000600060B1
:103F9000006E007F807380618061806180618073CA
:103FA000007F006E00000000000000000000000024
:103FB00000000000001E003F807380610060006010
:103FC00080618073003F001E0000000000000000C0
:103FD0008001800180018001801D803F80738061AD
:103FE0008061806180618073803F801D00000000DF
:103FF000000000000000000000000000001E003F64
:1040000000738061807F807F00608071003F001EB0
:104010000000000000000000C007C00F000C000CF2
:10402000807F807F000C000C000C000C000C000C4A
:10403000000C000C00000000000000000000000068
:104040000000801D803F807380618061806180619D
:104050008073803F801D80018063007F003E0000F0
:104060000060006000600060006F807F8071806190
:1040700080618061806180618061806100000000FA
:10408000000000000006000600000000003E003EA8
:1040900000060006000600060006000600060006F0
:1040A0000000000000000006000600000000003EC6
:1040B000003E000600060006000600060006000698
:1040C000000600060046007E003C00000060006024
:1040D00000600060806100630066006C007C007618
:1040E000006300638061C060000000000000000009
:1040F000003E003E00060006000600060006000620
:10410000000600060006000600060006000000008B
:1041100000000000000000000000000080DDC0FF83
:10412000C0CEC0CCC0CCC0CCC0CCC0CCC0CCC0CC2D
:10413000000000000000000000000000000000007F
:10414000006F807F807180618061806180618061AB
:10415000806180610000000000000000000000009D
:1041600000000000001E003F80738061806180615C
:1041700080618073003F001E00000000000000000E
:10418000000000000000006E007F8073806180618D
:10419000806180618073007F006E0060006000605D
:1041A00000600000000000000000801D803F807360
:1041B00080618061806180618073803F801D8001AB
:1041C000800180018001000000000000000000006C
:1041D0000067803F00390030003000300030003090
:1041E000003000300000000000000000000000006F
:1041F00000000000001E803F80610060007F803F63
:1042000080018061007F001E0000000000000000AF
:104210000000000800180018007F007F0018001838
:104220000018001800180018801F800F0000000000
:1042300000000000000000000000000080618061BC
:10424000806180618061806180618063807F803D6A
:10425000000000000000000000000000000000005E
:10426000C060803180318031001B001B001B000EBC
:10427000000E00060000000000000000000000002A
:104280000000000080DD80DD80DD00550055005518
:1042900000770077002200220000000000000000EC
:1042A0000000000000000000806100330033001EA9
:1042B000000C000C001E0033003380610000000081
:1042C000000000000000000000008061806180317B
:1042D00000330033001B001B001B000E000E000EFD
:1042E000001C007C007000000000000000000000C6
:1042F000C07FC07F800100030006000C0018003062
:10430000C07FC07F0000000000008003800700061F
:104310000006000600060006000E001C001C000E31
:10432000000600060006000600068007800300065F
:10433000000600060006000600060006000600064D
:10434000000600060006000600060006000600063D
:1043500000060038003C000C000C000C000C000CA7
:10436000000E00070007000E000C000C000C000CF3
:10437000000C003C003800000000000000000000BD
:10438000000000008038807F00470000000000002F
:10439000000000000000000000000000000000001D
:1043A00000000102030406070809000000000102E2
:1043B0000304000002400000000000A00000000014
:1043C00005400000000000C8000000000C40000094
:1043D0000000409C00000000194000000020BCBE0E
:1043E0000000000034400000BFC91B8E0000000424
:1043F000B5400000504BCFD06607E2CF010000006F
:104400006C4100003E8251AADFEEA734010000009B
:10441000D9420000DCB5A0E23A301F97FFFFFFFF52
:10442000B4450000FD25A0C8E9A3C14FFFFFFFFF71
:10443000FF3F00000000008000000000FF3F000080
:1044400000000080000000008444000800000020FC
:104450003C00000028010008C04400083C00002087
:10446000140B0000440100081C0000004300000081
:10447000F8FFFFFF0C0000000E0000000F0000001E
:104480002E0000000B1200003E3600080000000065
:10449000000000000000000000000000000000001C
:1044A000000000000000000000000000000000000C
:1044B0000100000010000000000000000024F400D3
:04000005080000ED02
:00000001FF
