:020000040800F2
:10000000D80A002089010008DF120008D10F00087B
:10001000DD120008E30200081916000800000000C5
:10002000000000000000000000000000C1150008F2
:10003000E502000800000000E1120008C3150008F6
:10004000A3010008A3010008A3010008A301000800
:10005000A3010008A3010008E7020008A3010008AB
:10006000A3010008A3010008A3010008A3010008E0
:10007000A3010008A3010008A3010008A3010008D0
:10008000A3010008A3010008A3010008A3010008C0
:10009000A3010008A3010008A3010008A3010008B0
:1000A000A3010008A3010008A3010008A3010008A0
:1000B000A3010008A3010008A3010008A301000890
:1000C000A3010008A3010008A3010008A301000880
:1000D000A3010008A3010008A3010008A301000870
:1000E000A3010008A3010008A301000800F002F822
:1000F00000F03AF80AA090E8000C82448344AAF188
:100100000107DA4501D100F02FF8AFF2090EBAE885
:100110000F0013F0010F18BFFB1A43F0010318473B
:100120006C2300008C230000103A24BF78C878C1EB
:10013000FAD8520724BF30C830C144BF04680C60ED
:10014000704700000023002400250026103A28BF35
:1001500078C1FBD8520728BF30C148BF0B60704739
:100160001FB51FBD10B510BD00F082F81146FFF796
:10017000F7FF01F063FA00F0A0F803B4FFF7F2FF15
:1001800003BC00F0A7F80000094880470948004771
:10019000FEE7FEE7FEE7FEE7FEE7FEE7FEE7FEE737
:1001A000FEE7FEE704480549054A064B7047000094
:1001B00017160008ED000008D8040020D80A002017
:1001C000D8060020D806002002F0FF0343EA0322ED
:1001D00042EA024200F02CB84FF0000200B513468C
:1001E00094469646203922BFA0E80C50A0E80C5057
:1001F000B1F12001BFF4F7AF090728BFA0E80C5008
:1002000048BF0CC05DF804EB890028BF40F8042B00
:1002100008BF704748BF20F8022B11F0804F18BF6D
:1002200000F8012B70477047704770474FF000028D
:100230000429C0F0128010F0030C3FF4CFAFCCF1D2
:10024000040CBCF1020F18BF00F8012BA8BF20F866
:10025000022BA1EB0C01FFF7C1BF5FEAC17C24BFF9
:1002600000F8012B00F8012B48BF00F8012B704764
:10027000754600F02BF8AE4605006946534620F05F
:100280000700854618B020B5FFF78CFFBDE8204079
:100290004FF000064FF000074FF000084FF0000B42
:1002A00021F00701AC46ACE8C009ACE8C009ACE8F5
:1002B000C009ACE8C0098D46704710B50446AFF3DD
:1002C00000802046BDE81040FFF757BF0048704748
:1002D0007404002001491820ABBEFEE7260002008E
:1002E0007047FEE77047012000F014B870B504466F
:1002F00000F012F90546601C02D00448007804445E
:1003000000F00AF9401BA042FAD370BD1000002093
:1003100070470000044910B50A68024202D0086024
:10032000FFF7F6FF10BD0000140401402DE9F84F5F
:10033000DFF8B891002409F1040A0AF1040B2346FE
:100340000F270BF1040EC9E00125A5402A40AA425F
:100350007DD1674ED1F804C0ACEB0608B44532D06D
:1003600014DCBCF1030F3AD009DCBCF1000F2AD039
:10037000BCF1010F1CD0BCF1020F31D11DE0BCF16A
:10038000110F17D0BCF1120F2AD119E0B8F5881F50
:1003900019D006DCB8F5803F15D0B8F5801F1FD105
:1003A00011E0B8F5001F0ED0B8F5041F18D10AE00F
:1003B000CB6815E0CB681B1D12E0CB6808330FE05B
:1003C000CB680C330CE08B682BB1012B4FF008038A
:1003D00003D0456104E0042302E0056100E000234E
:1003E000FF2A01D8064601E000F104064FEA840521
:1003F00001D9A5F12005D6F8008007FA05FC28EA06
:100400000C0803FA05F548EA0508C6F800804D68AF
:10041000ED0062D5374DAE6946F00106AE61AD69BB
:1004200024F0030605F001050095334D06EB050C9D
:10043000DCF80850A607360F07FA06F825EA080583
:10044000DFF8B880404503D14FF0000817E044E0E2
:10045000DFF8AC80404502D14FF001080FE0DFF833
:10046000A480404502D14FF0020808E0DFF89880F0
:10047000404502D14FF0030801E04FF0040808FAAC
:1004800006F848EA0508CCF808804D68D9F80060FD
:10049000ED034D4601D5164300E096432E604D68AE
:1004A000DAF80060AD03554601D5164300E09643E7
:1004B0002E604D68DBF80060ED025D4601D5164305
:1004C00000E096432E604D68DEF80060AD02754690
:1004D00001D5164300E096432E60641C0D682A4641
:1004E000E5407FF431AFBDE8F88F00000004014023
:1004F00000001110001002400000014000080140FF
:10050000000C014000100140001401400AB10161DB
:1005100070470904FBE7000001488068704700004D
:100520001000002070B5040025D094F83D0000258F
:1005300020B984F83C50204600F004FA242084F8C6
:100540003D002068016821F0010101602068016818
:1005500041F4004101602068016821F4004101601C
:1005600000F04CFB4D4A6168914201D84C4900E0D3
:100570004C49884201D2012070BD4B492368B0FB31
:10058000F1F15E6826F03F060E435E6063689342B9
:1005900006D94FF4967359434FF47A73B1FBF3F1D4
:1005A0002368491C1E6A26F03F06314319626168C0
:1005B000914210D84900401EB0FBF1F2521CC2F328
:1005C0000B02042A01D2042022E0B0FBF1F0401C0F
:1005D000C0F30B001CE0A268F2B301EBC10303EB14
:1005E0000116431EB3FBF6F35B1C43F480431B056B
:1005F00049D092B301EBC10202EB0111401EB0FBE6
:10060000F1F0401CC0F30B0040F4804040F4004087
:100610002168CA694CF6FF739A431043C861D4E954
:10062000071001432068026822F0C00211430160F4
:10063000D4E9030101432068826848F2FF339A43FA
:1006400011438160D4E9050108432168CA6822F09A
:10065000FF021043C86001E00EE016E02068016868
:1006600041F0010101602564202084F83D002563EC
:1006700084F83E50002070BD01EB4106431EB3FBE1
:10068000F6F35B1CB3E70120C2E701EB4101401E1A
:10069000B0FBF1F0401CC0F30B00B7E7A0860100EF
:1006A00080841E0000093D0040420F002DE9FF4FED
:1006B00081B089460446FFF72FFF054694F83D00B8
:1006C0004FF0010820287DD11923012250492046EE
:1006D000009500F009FD002874D194F83C00012831
:1006E00070D0012084F83C0020680168C90703D15C
:1006F000016841F0010101602068016821F4006196
:100700000160242084F83D00002626644148E06210
:100710004FF0011B20272068016841F480710160BF
:100720000095002259462046049B00F0DDFC50B1A4
:1007300020680068C00502D54FF4007020640320D3
:1007400005B0BDE8F08F216809F0FE000861FFF7F1
:10075000E3FE2168054648694969C0F34000C1F3DA
:1007600080214FF0A00A0FE0FFF7D6FE411B04984E
:10077000814200D808B984F83DA0216848694969D8
:10078000C0F34000C1F3802194F83D20A02A02D09C
:1007900008B90029E8D084F83D7020684169C94350
:1007A000890716D4016841F400710160206841692D
:1007B00080691923012216492046009500F094FC17
:1007C000B8B900E021E084F83D7084F83C60002076
:1007D000B6E7016841F40071016021686FF4806040
:1007E0004861192301220A492046009500F07CFC4B
:1007F00008B10120A4E7039808F1010880458AD3D5
:1008000084F83D7084F83C60F3E7022098E700002C
:10081000020010000000FFFF2DE9F84F1F46904630
:100820008A460446DDF82890FFF776FE054694F8E0
:100830003D0020287FD11923012240492046009500
:1008400000F052FC002876D194F83C00012872D0C8
:10085000012084F83C0020680168C90703D10168C1
:1008600041F0010101602068016821F4006101602C
:10087000212084F83D00102084F83E0000262664E4
:10088000C4F824806785608D20852D48E0622B4662
:100890004A465146204600F0B3FB90B920684169B2
:1008A0008069009036E02A464946204600F09BFCCD
:1008B00050B1206C042804D12068016841F4007113
:1008C00001600120BDE8F88F606A21680078086146
:1008D000606A401C6062618D491E6185218D491EE0
:1008E00089B2218522685369DB435B070BD451B180
:1008F00000781061606A401C6062608D401E6085F7
:10090000208D401E20852A464946204600F0C6FB21
:100910000028CED1208D0028C5D154F83D0B0168A8
:1009200041F400710160202004F81E09E677667723
:100930000020C7E7FFE70220C4E700000200100024
:100940000000FFFF10B586B00021009101910291D7
:10095000039100680F4988421AD10F4CA06940F0FA
:100960000800A061A069694600F008000490C0205A
:10097000009012200190032003900848FFF7D6FC56
:10098000E06940F40010E061E06900F400100490B8
:1009900006B010BD0054004000100240000C0140A1
:1009A000024881680278114481607047100000207D
:1009B000074810B5016841F010010160032000F004
:1009C00075F80F2000F006F800F024F8002010BDA4
:1009D0000020024070B50D4D04464FF47A7128781E
:1009E000B1FBF0F00A490968B1FBF0F000F0DCFA65
:1009F00048B9102C07D200222146501E00F036F8CC
:100A000000206C6070BD012070BD0000100000204F
:100A10001C0000200C4808B5816941F0010181618A
:100A2000816901F001010091C16941F08051C1610A
:100A3000C06900F0805000900448416821F0E061F6
:100A400041F00071416008BD00100240000001400B
:100A5000002809DB00F01F020121914040098000BD
:100A600000F1E020C0F8001170470000F0B40E4B18
:100A70001B680C46C3F30223C3F10705042D00D9FC
:100A80000425191D072901D2002300E0DB1E0126E1
:100A900006FA05F1491E214099409E40761E1640F7
:100AA0003143F0BC00F0B9BD0CED00E0064900F0A8
:100AB000070208684FF6FF03184040EA0220034A85
:100AC00010430860704700000CED00E00000FA05DC
:100AD0002DE9F0470F46050061D0434E306800F025
:100AE0000700B84209D2306820F007003843306070
:100AF000306800F00700B84251D128683B4C8107AC
:100B000012D5400703D5606840F4E0606060287843
:100B1000000703D5606840F4605060606068A968B1
:100B200020F0F000084360602878C00728D068688B
:100B3000012810D02168022810D0890700292EDA58
:100B4000616821F0030101436160FFF7E5FC804625
:100B500041F288390DE021688903EFE78901EDE76B
:100B6000FFF7DAFCA0EB0801494502D90320BDE8F4
:100B7000F0876068696800F00C00B0EB810FEFD17E
:100B8000306800F00700B8420BD9306820F0070049
:100B900038433060306800F00700B84201D00120CF
:100BA000E5E72878400705D56068E96820F4E0604B
:100BB000084360602878000706D56068296920F43A
:100BC000605040EAC100606000F028F86168084A9F
:100BD000C1F30311515CC84006490860064800682B
:100BE000FFF7F8FE0020C2E700200240001002409C
:100BF000742400081C00002014000020044805494B
:100C000000684968044AC1F30221515CC84070473A
:100C10001C000020001002408424000812A185B0AE
:100C20000FC98DE80F0014A0144A006804905168A1
:100C3000134801F00C03042B10D0082B0ED1C1F384
:100C40008343C9031DF803000AD5516804AAC1F300
:100C50004041515C0A4A5043B0FBF1F005B0704787
:100C600008494843FAE7000002030405060708099B
:100C70000A0B0C0D0E0F10100102000000100240B4
:100C800000127A0000093D002DE9F84F040070D0F1
:100C90002078C04DC00749D06868C0F381000128A2
:100CA00007D06868C0F38100022809D16868C003D2
:100CB00006D52868800339D560680028E7D035E07C
:100CC0006068B0F5803F0BD010B1B0F5A02F11D007
:100CD000286820F480302860286820F4802002E012
:100CE000286840F480302860606890B1FFF714FCF9
:100CF00006460AE0286840F480202860F0E700BF3C
:100D0000FFF70AFC801B642873D828688003F7D596
:100D10000CE0FFF701FC064605E000BFFFF7FCFB17
:100D2000801B6428F0D828688003F7D420789A4E76
:100D300080074FF001094FF0000839D5686810F0BE
:100D40000C0F07D06868C0F38100022809D16868D9
:100D5000C00306D42868800714D52069012808D16B
:100D600010E02069B0B1C6F80090FFF7D5FB074648
:100D700005E00AE1FFF7D0FBC01B0228C4D82868B1
:100D80008007F7D52868616920F0F80040EAC100C3
:100D900028600DE0C6F80080FFF7BEFB074604E0C0
:100DA000FFF7BAFBC01B022823D828688007F7D4B6
:100DB000207800072CD57948A169D9B1C0F80090F6
:100DC000FFF7AAFB074604E0FFF7A6FBC01B0228BB
:100DD0000FD8686A8007F7D571484FF4FA51006858
:100DE000B0FBF1F0009000BF0098411E0091FAD2D4
:100DF0000EE080E0C0F80080FFF78EFB074604E0BD
:100E0000FFF78AFBC01B022875D8686A8007F7D4F1
:100E10002078400760D5E8690027C00008D4E86959
:100E200040F08050E861E869012700F080500090B0
:100E30005C480168C90513D40168834641F4807198
:100E40000160FFF769FB824606E000BFFFF764FB25
:100E5000A0EB0A0064284ED8DBF80000C005F5D5E9
:100E6000E06801280AD008B1052813D0286A20F0CC
:100E700001002862286A20F0040002E0286A40F09D
:100E800001002862E06841F2883B98B1FFF744FB1B
:100E900082460BE0286A40F004002862EEE700BFBB
:100EA000FFF73AFBA0EB0A0159455AD8286A800798
:100EB000F6D50CE0FFF730FB824605E0FFF72CFB90
:100EC000A0EB0A0159454CD8286A8007F6D41FB117
:100ED000E86920F08050E861E06988B36968C1F38F
:100EE0008101022944D00228C6F8608004D0FFF7AF
:100EF00013FB044638E034E0FFF70EFB074604E03E
:100F0000FFF70AFBC01B02282BD828688001F7D402
:100F1000206AB0F5803F05D16868A16820F40030F0
:100F200008436860D4E908010843696821F4741132
:100F300008436860C6F86090FFF7EEFA044606E0E2
:100F400025E000BFFFF7E8FA001B022809D828684F
:100F50008001F7D51BE000BFFFF7DEFA001B022877
:100F600002D90320BDE8F88F28688001F4D40EE090
:100F70000128F7D06868226A00F48031914204D1D8
:100F8000616A00F47010884201D00120EAE7002075
:100F9000E8E70000001002400000424280044242A4
:100FA0001C0000200070004010B5401EB0F1807F92
:100FB00001D3012010BD4FF0E02460610F216017C4
:100FC00000F02BFB0020A06107202061002010BD55
:100FD000FEE701684A69D24352050FD46FF480627C
:100FE0004A61002140F8301F202242738173026958
:100FF00042F0040202610173012070470020704733
:10100000F8B50446C06A1E460D461746082807D0A4
:10101000012805D010F5803F02D0206B122804D1A2
:101020002068016841F480710160134600224FF08E
:1010300001112046009600F057F840B12068006882
:10104000C00502D54FF4007020640320F8BD20696C
:10105000B0F5804F0ED00620216800EAD51040F090
:10106000F000086133463A460B49204600F070F81C
:1010700078B902E005F0FE0000E0E8B221680861FE
:10108000054933463A46891F204600F061F800289A
:10109000DCD00120F8BD00000800010070B5164644
:1010A0000D4604460DE02046FFF793FF08B10120EE
:1010B00070BD681C05D0FFF72FFA801BA84207D827
:1010C00035B120684069C0434007ECD4002070BDB2
:1010D000002044F8300F20216173A073216941F092
:1010E000200121612073E2E72DE9F0471E4690467A
:1010F0000D460446C1F30747DDF8209008E0701C58
:1011000006D0FFF709FAA0EB0900B0420FD876B17C
:101110002068012F18D0806925EA00000004000C27
:1011200014D000214145EAD00020BDE8F08700201E
:1011300044F8300F20216173A073216941F0200130
:10114000216120730120F0E74069E5E70121E9E72B
:101150002DE9F0479A4691460E46044600254FF089
:101160002008C1F3074725E020684069C0434005D7
:1011700014D42068016841F40071016021686FF4A3
:1011800080604861256384F83D8084F83E50206C7F
:1011900040F00400206484F83C501FE0B9F1FF3FA8
:1011A00008D0FFF7B9F9A0EB0A0149450CD8B9F10D
:1011B000000F09D02068012F13D0806926EA0000B3
:1011C0000004000C0BD0CFE744F8305F84F80D80AA
:1011D000A573206940F02000206125730120BDE83F
:1011E000F0874069EAE770B516460D4604460DE003
:1011F0002046FFF7EEFE08B1012070BD681C05D047
:10120000FFF78AF9801BA84207D835B120684069EA
:10121000C0430006ECD4002070BD002044F8300F1D
:1012200020216173A073216941F0200121612073A5
:10123000E2E7000070B586B00024244800940194D1
:1012400002940394816941F010018161816901F088
:1012500010010491816941F020018161816901F0EF
:1012600020010491816941F008018161816901F0E7
:1012700008010491816941F0040181618069144E83
:1012800000F004004FF40055049000222946304637
:10129000FFF73CF90220CDE902400095012569469F
:1012A00001953046FFF742F80A480095CDE9010460
:1012B00069460948FFF73AF8002211460620FFF771
:1012C000D5FB0620FFF7C4FB06B070BD001002403E
:1012D0000010014000001110000C0140FEE7FEE785
:1012E0007047000070B5802813D2402911D20B4BF3
:1012F000012401F007051E79AC40094BC90800EB39
:10130000C1100EB132B101E0012A03D0195CA14332
:10131000195470BD195C2143FAE700000800002051
:101320002000002028B1FF224FF480610248FEF720
:101330004BBF0022F8E7000020000020014A108087
:10134000518070470800002010B500F0B3F944F652
:101350002063012278215448FFF7A8F908B1002042
:1013600010BD40F6C210401EFDD1AE2200217820F3
:1013700000F0A6F920220021782000F0A1F9102227
:101380000021782000F09CF9B0220021782000F0A4
:1013900097F9C8220021782000F092F90022114626
:1013A000782000F08DF910220021782000F088F9D3
:1013B00040220021782000F083F98122002178204A
:1013C00000F07EF9FF220021782000F079F9A122B7
:1013D0000021782000F074F9A6220021782000F086
:1013E0006FF9A8220021782000F06AF93F2200213D
:1013F000782000F065F9A4220021782000F060F93F
:10140000D3220021782000F05BF9002211467820D9
:1014100000F056F9D5220021782000F051F9F02291
:101420000021782000F04CF9D9220021782000F02A
:1014300047F922220021782000F042F9DA22002127
:10144000782000F03DF912220021782000F038F9D0
:10145000DB220021782000F033F9202200217820BF
:1014600000F02EF98D220021782000F029F91422B5
:101470000021782000F024F9AF220021782000F02C
:101480001FF92E220021782000F01AF90020FFF722
:1014900049FF00F071F805480021018041800121D9
:1014A0004171084610BD0000200400200800002003
:1014B0002DE9F047814625480D46924601882A7855
:1014C0001144802905D28046408869780844402824
:1014D00002D30020BDE8F08700262AE0A9F1200110
:1014E00001FB00606A68002432F810701DE000BF44
:1014F00007FA04F0000409D5B8F80210B8F80000A3
:101500003144204489B280B252460BE0BAF1000F58
:101510001AD00022B8F80210B8F800003144204474
:1015200089B280B2FFF7DEFE641C2878A042DFD8C3
:10153000761C6878B042D1D8B8F800102A784846AE
:101540001144A8F80010C5E70122E3E708000020D5
:1015500070B515460E46044609E02A463146FFF7A7
:10156000A7FF2178884201D0C8B270BD641C2078E2
:101570000028F2D1C0B270BD70B5104D002400BF7C
:1015800004F1B000C2B20021782000F099F80022E6
:101590001146782000F094F810220021782000F005
:1015A0008FF805EBC41280234021782000F098F8D2
:1015B000641CE4B2082CE3D370BD000020000020BE
:1015C0007047FFF7EDB910B590B028216846FEF7D7
:1015D00003FE14210AA8FEF7FFFD0220009001205F
:1015E000049010200024059007946846FFF74CFBF8
:1015F00008B172B6FEE70F20CDE90A040C940D94F1
:1016000000210AA80E94FFF763FA002801D072B6F1
:10161000FEE710B010BD7047FEE70907090E00286D
:1016200004DB00F1E02080F80014704700F00F00A8
:1016300000F1E02080F8141D70470000FFF7B8F9B2
:10164000FFF7C1FFFFF7F6FD134812494FF4804240
:1016500001601249416000218160C0E903124161CB
:101660008161C1610162FEF75DFF08B172B6FEE7FC
:10167000FFF76AFE00210846FFF760FE01220849D5
:1016800008A0FFF765FFFFF777FF4FF4FA60FEF75A
:101690002DFEFEE70054004020040020801A0600C2
:1016A0000000002048656C6C6F20576F726C6421DD
:1016B000000000000148401EFDD1704790D003009B
:1016C0001CB502238DF804100A2100918DF8052025
:1016D000014601AA0148FFF79FF81CBD2004002025
:1016E00070B5C2B000248DF8041001A904E0155DA6
:1016F0000E19641C7570E4B29C42F8D30A21009163
:101700005B1C01469BB201AA0248FFF785F842B074
:1017100070BD000020040020000000000000000058
:1017200000000000000000000000000000000000B9
:101730000000000000000000000000000000000C9D
:10174000000C000C000C000C000C000C000C000C39
:10175000000C000C0000000C000C00000000000059
:101760000000001B001B001B001B001B00000000F2
:101770000000000000000000000000000000000069
:101780000000000000008019801980198019C07FB6
:10179000C07F80190033C07FC07F00330033003327
:1017A00000330000000000000000001E003F8075B4
:1017B00080650074003C001E000780058065806520
:1017C0008075003F001E000400040000000000704F
:1017D00000D840D8C0D880D900730006000C801B08
:1017E000C036C066C046C00680030000000000008E
:1017F0000000001E003F003300330033001E000CC9
:10180000C03CC066806380618063C03E801C000075
:10181000000000000000000C000C000C000C000C8C
:1018200000000000000000000000000000000000B8
:10183000000000000000000080000001000300061E
:1018400000060004000C000C000C000C000C000C46
:1018500000040006000600030001800000200010C4
:101860000018000C000C000400060006000600062C
:10187000000600060004000C000C001800100020F8
:101880000000000C002D003F001E0033000000008F
:101890000000000000000000000000000000000048
:1018A00000000000000000000000000C000C000C14
:1018B000000CC0FFC0FF000C000C000C000C00006E
:1018C0000000000000000000000000000000000018
:1018D0000000000000000000000000000000000008
:1018E0000000000C000C00040004000800000000D0
:1018F0000000000000000000000000000000001ECA
:10190000001E0000000000000000000000000000B9
:1019100000000000000000000000000000000000C7
:1019200000000000000000000000000C000C00009F
:101930000000000000000003000300030006000692
:1019400000060006000C000C000C000C001800182B
:1019500000180000000000000000001E003F0033DF
:10196000806180618061806D806D80618061806157
:101970000033003F001E00000000000000000006D1
:10198000000E001E003600260006000600060006B7
:101990000006000600060006000600000000000029
:1019A0000000001E003F80738061806180010003A1
:1019B0000006000C001800300060807F807F00006F
:1019C000000000000000001C003E006300630003F4
:1019D000000E000E00038001800180618073003FD3
:1019E000001E00000000000000000006000E000EB7
:1019F000001E001E0016003600360066807F807FC5
:101A00000006000600060000000000000000007F45
:101A1000007F006000600060006E007F80638001D6
:101A2000800180618073003F001E00000000000004
:101A30000000001E003F803380610060006E007F68
:101A400080738061806180618033003F001E0000F0
:101A5000000000000000807F807F80010003000301
:101A600000060006000C000C000C0008001800180E
:101A700000180000000000000000001E003F80630E
:101A8000806180610021001E003F80618061806173
:101A90008061003F001E0000000000000000001EEA
:101AA000003F00738061806180618073803F801D92
:101AB000800180610073003F001E000000000000F4
:101AC00000000000000000000000000C000C0000FE
:101AD00000000000000000000000000C000C0000EE
:101AE00000000000000000000000000000000000F6
:101AF000000C000C00000000000000000000000CC2
:101B0000000C0004000400080000000000000000B9
:101B100080008003000E003800600038000E800353
:101B20008000000000000000000000000000000035
:101B3000000000000000807F807F00000000807FA8
:101B4000807F000000000000000000000000000096
:101B5000000000000000000000400070001C0007B2
:101B600080010007001C0070004000000000000021
:101B7000000000000000001F803FC071C060C00076
:101B8000C00180030007000E000C000C0000000CD8
:101B9000000C0000000000000000001E003F80312B
:101BA00080718063806F806D806D806F8067006062
:101BB0000032003E001C0000000000000000000E8B
:101BC000000E001B001B001B001B80318031803F7A
:101BD000803F8031C060C060C06000000000000035
:101BE0000000007C007E0063006300630063007EF1
:101BF000007E0063806180618063007F007E000062
:101C0000000000000000001E003F80318061006085
:101C10000060006000600060006080618031003F13
:101C2000001E0000000000000000007C007F006338
:101C30008063806180618061806180618061006318
:101C40000063007E007C0000000000000000807F38
:101C5000807F0060006000600060007F007F0060A7
:101C6000006000600060807F807F00000000000056
:101C70000000807F807F0060006000600060007F67
:101C8000007F006000600060006000600060000095
:101C9000000000000000001E003F803180610060F5
:101CA0000060006080638063806180618031803F7C
:101CB000001E000000000000000080618061806163
:101CC000806180618061807F807F806180618061D0
:101CD0008061806180610000000000000000003F22
:101CE000003F000C000C000C000C000C000C000C61
:101CF000000C000C000C003F003F00000000000042
:101D0000000080018001800180018001800180014C
:101D100080018001806180618073003F001E0000AF
:101D2000000000000000C060806100630066006683
:101D3000006C0078007C0066006600638061806152
:101D4000C060000000000000000000600060006053
:101D50000060006000600060006000600060006083
:101D60000060807F807F0000000000000000C071E4
:101D7000C071C07BC07AC06AC06AC06EC064C060F7
:101D8000C060C060C060C060C060000000000000B3
:101D9000000080718071807980798079806D806D9C
:101DA000806D8065806780678067806380630000E6
:101DB000000000000000001E003F003380618061D1
:101DC0008061806180618061806180610033003F5B
:101DD000001E0000000000000000007E007F806305
:101DE0008061806180618063007F007E00600060B0
:101DF0000060006000600000000000000000001EA5
:101E0000003F00338061806180618061806180611A
:101E1000806580670033803F401E000000000000A6
:101E20000000007E007F8063806180618063007FAE
:101E3000007E00660063006380618061C060000016
:101E4000000000000000000E001F803180310030D3
:101E50000038001E00078003806180618031003FF0
:101E6000001E0000000000000000C0FFC0FF000CCA
:101E7000000C000C000C000C000C000C000C000C02
:101E8000000C000C000C000000000000000080614D
:101E9000806180618061806180618061806180613A
:101EA000806180618073003F001E00000000000020
:101EB0000000C060C060C060803180318031001B94
:101EC000001B001B001B000E000E000E0004000093
:101ED000000000000000C0C0C0C0C0C0C0C0C0C082
:101EE000C0CC804C804C805E805280528073806178
:101EF00080610000000000000000C0C080608061C0
:101F00000033003B001E000C000C001E001F003BB5
:101F100080718061C0C00000000000000000C0C0EF
:101F20008061806100330033001E001E000C000C35
:101F3000000C000C000C000C000C00000000000065
:101F40000000803F803F8001000300030006000C7A
:101F5000000C0018001800300060807F807F0000B7
:101F600000000000000F000F000C000C000C000C23
:101F7000000C000C000C000C000C000C000C000C01
:101F8000000C000C000F000F0000001800180018D3
:101F9000000C000C000C000C0006000600060006F9
:101FA000000300030003000000000000001E001EEC
:101FB00000060006000600060006000600060006F1
:101FC000000600060006000600060006001E001EB1
:101FD0000000000C000C001E001200330033806172
:101FE0008061000000000000000000000000000010
:101FF00000000000000000000000000000000000E1
:1020000000000000000000000000000000000000D0
:1020100000000000E0FF0000000000380018000C85
:1020200000000000000000000000000000000000B0
:1020300000000000000000000000000000000000A0
:10204000000000000000001F803F80618001801FB1
:10205000803F80618063807FC03800000000000006
:1020600000000060006000600060006E007F807310
:1020700080618061806180618073007F006E0000FC
:102080000000000000000000000000000000001E32
:10209000003F807380610060006080618073003F5A
:1020A000001E00000000000000008001800180018F
:1020B0008001801D803F80738061806180618061CC
:1020C0008073803F801D00000000000000000000C1
:1020D000000000000000001E003F00738061807F50
:1020E000807F00608071003F001E00000000000043
:1020F0000000C007C00F000C000C807F807F000C28
:10210000000C000C000C000C000C000C000C00007B
:10211000000000000000000000000000801D803F63
:10212000807380618061806180618073803F801DE9
:1021300080018063007F003E00000060006000605E
:102140000060006F807F807180618061806180614C
:1021500080618061806100000000000000000006D6
:10216000000600000000003E003E000600060006DB
:102170000006000600060006000600000000000041
:102180000006000600000000003E003E00060006BB
:1021900000060006000600060006000600060046CF
:1021A000007E003C00000060006000600060806114
:1021B00000630066006C007C007600630063806151
:1021C000C0600000000000000000003E003E00066D
:1021D00000060006000600060006000600060006CF
:1021E00000060006000600000000000000000000DD
:1021F00000000000000080DDC0FFC0CEC0CCC0CC1D
:10220000C0CCC0CCC0CCC0CCC0CC00000000000012
:1022100000000000000000000000006F807F80715F
:102220008061806180618061806180618061000087
:102230000000000000000000000000000000001E80
:10224000003F807380618061806180618073003FA6
:10225000001E000000000000000000000000000060
:10226000006E007F80738061806180618061807317
:10227000007F006E006000600060006000000000F1
:1022800000000000801D803F80738061806180615C
:1022900080618073803F801D80018001800180010A
:1022A000000000000000000000000067803F0039CF
:1022B00000300030003000300030003000300000CE
:1022C0000000000000000000000000000000001EF0
:1022D000803F80610060007F803F80018061007FDF
:1022E000001E0000000000000000000000080018B0
:1022F0000018007F007F0018001800180018001850
:102300000018801F800F0000000000000000000087
:102310000000000000008061806180618061806158
:10232000806180618063807F803D0000000000004C
:1023300000000000000000000000C060803180311B
:102340008031001B001B001B000E000E0006000069
:10235000000000000000000000000000000080DD20
:1023600080DD80DD005500550055007700770022A4
:10237000002200000000000000000000000000003B
:102380000000806100330033001E000C000C001EB2
:1023900000330033806100000000000000000000F6
:1023A0000000000080618061803100330033001B39
:1023B000001B001B000E000E000E001C007C0070B5
:1023C00000000000000000000000C07FC07F80010E
:1023D00000030006000C00180030C07FC07F000022
:1023E00000000000800380070006000600060006CB
:1023F0000006000E001C001C000E00060006000671
:10240000000600068007800300060006000600069E
:10241000000600060006000600060006000600068C
:102420000006000600060006000600060038003C14
:10243000000C000C000C000C000C000E0007000744
:10244000000E000C000C000C000C000C003C0038CE
:1024500000000000000000000000000000008038C4
:10246000807F004700000000000000000000000026
:102470000000000000000000000000000102030452
:10248000060708090000000001020304AC2400084C
:10249000000000202000000028010008CC240008D3
:1024A00020000020B80A0000440100080B120000C0
:1024B00018170008000000000000000001000000E4
:0C24C00010000000000000000024F400E8
:04000005080000ED02
:00000001FF
